:10000000004000201D550000491C00004B1C000052
:1000100000000000000000000000000000000000E0
:10002000000000000000000000000000491C00006B
:100030000000000000000000491C0000491C0000F6
:10004000491C0000491C000021180000391C000058
:10005000291C000000000000DD0B000075170000E7
:10006000AD0D0000F91C0000950D0000050F00000B
:1000700039170000491C0000491C0000491C000001
:10008000491C0000F10E0000491C0000491C000042
:10009000D11C0000491C0000491C0000491C000044
:1000A000491C0000491C00008023D22230B504689E
:1000B0005B029200A3500468403AA35003234279A4
:1000C000154C5343E3185D78A82302680902090A16
:1000D000DB00D150002D10D00268104BD3585A1AB3
:1000E000994201D90E4BD218032341794B43E318AF
:1000F0009B789A4201DA0B480DE000220368FC333A
:100100005A648023C12201685B0292008B5001680F
:10011000403205488B5030BD6400002004050000CB
:10012000FFFFFF000700AD0B0000AD0B1FB5012363
:100130006A461370044B029001916846DA68996828
:10014000904705B000BDC046640000202C23F7B5E1
:100150000479464A6343D318DE68002E05D0C223D3
:10016000812507689B00AD00FD502C25654355197E
:100170002B6A002B0CD06B6A002B4AD0002E05D0C6
:10018000C123812102689B008900D15038483FE09B
:10019000012669612E62EB622C21614351186B626A
:1001A0003131097800290AD1002B08D10168FC31CE
:1001B0008B620168FC31CB600121036819602C233C
:1001C0006343D318DD680168002D45D1FC318D648F
:1001D00001680D00FC350191A96AEE68B4466746D6
:1001E000AE6C002F18D1002E01D10029F0D02C23A5
:1001F0005C43002312191362994233D19E4233D1DA
:100200003132117803680122002923D01A6019487D
:10021000FEBD0123A961BFE70F003743E7D1196A8B
:1002200000290BD1E960A321019DC9006958D96A51
:100230001D6A8D42CCD800210E00D8E7EF60A325BF
:10024000019EED00D96A75595E697554D96A01310C
:10025000D962ECE75A60DAE7C12381229B00920061
:10026000CA50D4E70448D3E70448D1E7640000202B
:100270000B00AD0B0000AD0B0100AD0B0800AD0B8A
:1002800003221C2103781340C278120213434278E0
:1002900092000A4013438278443152010A40C0213F
:1002A00013430279890212040A4013430149024AA6
:1002B0008B507047007000400405000070B5124C70
:1002C00002222300043034331A750D00FFF7D8FFE3
:1002D000A02101220D4BC9005A50F939FF395A505B
:1002E0000B491A600A68002AFCD000220A60A1218A
:1002F000C900595834342980A021C9005A5001231B
:100300000448237570BDC0466400002000700040A2
:10031000007100400000AD0BF8B5050006000F00AD
:1003200000244135FF352B68002B10D0C1239B00E2
:10033000F25880235B02A3401A4208D00023A00099
:1003400041302B60FF3079683B6880B298470134B8
:100350000435042CE7D1F8BDF0B58B789B07DF0F8F
:10036000002B07DA002404262F4A4C32B44204D171
:100370002E48F0BD04240526F6E7A500AB5801334E
:100380003FD1294B161834755E19294BF364002FA1
:1003900002D11219303210708A78530717D4D3075C
:1003A00031D5A023E027DB058200D2180223FF000D
:1003B000D6599E43D65107220240944601226346F5
:1003C0009A40194FC6088137BB5D1A43BA550A785F
:1003D00089788B0720D5A221164BC900EB185C58F1
:1003E000154D00022C40F8256D012840C0255C50B9
:1003F0001204AD025C582A401043204358500F4865
:10040000B7E70134B2E70200A0274E78C132FF32CD
:10041000B6009200FF05CDE7034B92011B197C3318
:10042000187802431A70EAE7640000200200AD0B5E
:10043000FD3C000000600040FFE0FCFF0000AD0B51
:1004400006207047032914D10123100018401A42D6
:100450000ED00020094BFC331B6B834208D09B68F5
:100460001A004A334C3210881B88C01A431E984128
:100470007047162201201A604042F9E7E40200208A
:100480007822064B0620FC33596B0A80596B743A6C
:100490004A80596B0A715B6B5A717047E402002005
:1004A000C3791E20002B00D110387047024B03483F
:1004B0001B7A9B02C01A7047E40000200000040071
:1004C000024B03485B7A9B02C01A7047E40000208D
:1004D000000004000048704740910100436801207B
:1004E0001A68024BD3585B0018437047040500009C
:1004F00001224368196806204A60597903234B4357
:1005000001495A547047C0466400002001214368E5
:100510001A68062011605A7903235343014A491887
:1005200099547047640000200121436819610C232D
:10053000027A06205A43024B9B1819757047C04631
:10054000E4000020012243681A600C23027A06208E
:100550005A43024B9B1802221A757047E400002090
:100560000123426853644168024A885898401843FE
:100570007047C046440500000620704706207047BB
:1005800006207047037A01205B001843704701235F
:10059000007A400940001843704743680220DB009E
:1005A000184370470123027AA0219340A122C90574
:1005B000D20006208B5070470123027AA02193407D
:1005C000A122C905D20006208B5070470123027A70
:1005D000A0219340024AC90506208B507047C046AF
:1005E0000C0500000123027AA0219340024AC905AC
:1005F00006208B507047C0460C050000054B0128B3
:1006000004D906204A68A8331A607047A8331868CE
:10061000FBE7C046E4020020054B012804D9062070
:100620004A68A4331A607047A4331868FBE7C046D1
:10063000E40200201FB500216B460C2201A859805E
:1006400018F0EDFA274B34331B7D022B04D06B4698
:1006500001A8991CFFF732FE6B4696205B88C0000C
:100660005843FF2118F080FC032343430F33FF332B
:100670001D4A9BB2642093420CD81C4883420ED979
:100680001B486421C31A3A204942584318F06CFCB5
:100690006430C0B201234000184305B000BD1549C5
:1006A0008B4208D9C01AA02118234942584318F098
:1006B0005BFC2A30EDE7104A934206D9C81A19218B
:1006C000494218F051FC1230E3E70C4900208B42FC
:1006D000E0D9D01A06220A49504318F045FC0630EA
:1006E000D7E7C04664000020B70B0000540B0000A1
:1006F000B80B0000B40A00008809000034080000AC
:10070000ACFEFFFF30B585B06B460500002101ACA3
:100710000C222000598018F082FA6B79E371074BA4
:1007200034331B7D022B04D06B462000991CFFF74D
:10073000C5FD6B460220185E05B030BD6400002088
:1007400010B5FFF7DFFF43000120184310BD10B5BF
:10075000FFF7D8FF0302034301205B00184310BDDD
:10076000012040427047F7B5040010008B18009339
:10077000009B994200D1FEBD4C25A368AC461D00EC
:100780001A001F000A350C329C4401954A37654611
:100790002E883D88AE42FAD01D000E35EF8F012520
:1007A000D68F6D42B7420AD05D6C731C9BB2D38763
:1007B000AD5D019EF68F9E4201D80023D3870D7058
:1007C0000131D5E70620704710B5836819001A007B
:1007D0000C310E32C88FD28F82420ED0421C92B2A0
:1007E0005C6CCA870A33DB8F205C934201D80023FC
:1007F000CB8701234000184310BD01204042F8E799
:10080000F7B54368304C1A792C235A43A218D5699E
:10081000002DFCD18268117042682B4915796B4319
:10082000CB18DE69002E4BD18168012719611900B0
:100830003031DF619E620E701068FC300662106815
:10084000876010681F6984466446FC300662986AB7
:100850003E5C986A013098621C4826500190D86826
:1008600000282FD1D86916680090986A009C8442AD
:1008700014D93000FC3002E00C78002C1ED1046A40
:10088000002CF9D000240462986A385C84466446DF
:10089000986A0130986201983450E6E713681900AD
:1008A000FC310A6A002AFCD001220948DA602C23B4
:1008B0005D43054B5C190023E361FEBD0548F6E787
:1008C0000548FAE70248F8E7640000201C0500002C
:1008D0000000AD0B0800AD0B0B00AD0BF7B515001C
:1008E0000C0007001E000C488B180193019B9C42D2
:1008F0000BD1094B984206D00125084B6D420133BC
:100900001818C37F33602800FEBD21783800FFF738
:1009100077FF0134EAE7C0460000AD0B40910100CB
:1009200070B503780C00012B0ED1896860684D7892
:100930000131FFF70BFC0F4B1B689D4205D10022D4
:100940000D4B5A630D4ADA6470BDA26810001100A5
:100950000E30C48F0A31C98F631C8B4289410B4012
:1009600011000C31C98F9942EED0526C1555C387D6
:10097000EAE7C04600000020E40200201003002047
:1009800072B60620704762B6062070470120024BFF
:100990005B6A5B0018437047E400002030BF06200C
:1009A000704720BF06207047BFF34F8F034B044AA8
:1009B000DA60BFF34F8FC046FDE7C04600ED00E0B0
:1009C0000400FA05802310B55B051A695A69196994
:1009D000040018F0C5FA002919D102220D4B0E4966
:1009E0005A500E4A106801300FD0126894420CD24F
:1009F000A222D2009C5080240122E4001859104207
:100A0000FCD0002206485A5010BDA122F1E705484B
:100A1000FAE7C04600E001400405000000100010A5
:100A20000000AD0B0A00AD0B30B580240123044D4E
:100A3000E4002A591A42FCD00160BFF35F8F30BD39
:100A400000E00140032313B51840043B01938218D2
:100A500001AB091A904201D1019816BD0C5CC45437
:100A60000130F7E78023F0B585B001915B051500F3
:100A70001A695B69012307002E492F4A04008B5035
:100A800002331F4002910392184214D001332E000A
:100A9000DB1B9D4200D91E00019932002000FFF7A8
:100AA000D1FFE71B01003800FFF7BEFF019BAD1B24
:100AB0009B19A4190193019B0026AF089B0718D12D
:100AC0002600BF003F19BE422CD1032329009943C1
:100AD000019B0C19591813E04B780A781B021A4332
:100AE0008B78C9781B04134309061943FFF79CFF51
:100AF0000136019BB10060185918BE42ECD10400C8
:100B000003232A001A401D4206D02000FFF79AFF57
:100B100001002000FFF788FF0023029A0399535039
:100B200005B0F0BD019B30001B1B9959FFF77CFFFE
:100B30000436C8E700E001400405000073B56B46C9
:100B4000D9710733190001220400FFF77BFF8023CE
:100B50005B051A695B69012301002000044E054D05
:100B6000735102339843FFF75FFF0023735173BD46
:100B700000E001400405000010B5C3790400002B1B
:100B800008D0064A03798179906ADB01C0180130E8
:100B9000FFF7D4FF0023237210BDC046E4000020FD
:100BA00010B50868FFF7E8FF062010BD10B5FFF785
:100BB000E3FF062010BD70B5074DC001AB6A0021F0
:100BC0001C1820002C357F34FFF7B8FF20782B78D5
:100BD0008342F1D270BDC046E4000020F0B500248D
:100BE000C1250122260087B04F4B5048504903943D
:100BF000AD001F68002F04D047593A4201D01E6053
:100C00001443043352008B42F3D14A4B1A68002A32
:100C10000AD000221A6080231B06A0221C43A223B4
:100C2000D205DB00D3580393230719D0A22701264E
:100C30000025FF0026420FD03C4BAA00D318D859FC
:100C4000D9593D4B4C33D358002B05D00322090C06
:100C5000C0041140C00E984701357600042DE9D13B
:100C6000002C5FDA00230593013B80240493324B70
:100C7000C0251C571A00E1B208004C32A8430134C9
:100C800050D00727C50804AC645D0F40FC40E40762
:100C900048D51218127D890952B292009B18DC6C5B
:100CA000002C08D103293DD10126BE4005AA535D81
:100CB0003343535501E00329F6D0A023E026DB059A
:100CC0008200D218F60093599B039B0F019303AB4C
:100CD0005D5DFD40EB0719D5019B022B22D1032955
:100CE0001AD10D009759154B2D043B402B439351BE
:100CF0000125002C13D1A022A223D205DB00D3585A
:100D0000039A9A420ED00393059BAEE7019B032BF7
:100D100008D102250329E5D0002C03D00025A047E7
:100D2000002DE8D107B0F0BD006100400060004038
:100D3000106100407C61004064000020FFFFFCFF68
:100D400030B5FF2503242A000440E400A2408901B5
:100D50002940D243A140C3B200280ADBC0240B4B78
:100D600080088000C018A40003591A4011430151A3
:100D700030BD0F200340083B05489B089B001B1813
:100D8000D86902401143D961F2E7C04600E100E0B2
:100D900000ED00E010B5034903481831FFF7BCFA35
:100DA00010BDC046E400002000A0004010B503497B
:100DB00003480C31FFF7B0FA10BDC046E400002034
:100DC00000800040002809DB1F2318401E3B8340A1
:100DD000034AD367BFF34F8FBFF36F8F7047C0468F
:100DE00004E100E070B503680400180B40B2FFF79F
:100DF000E9FF8023002022689B00D158D0500122B7
:100E0000012521680933FF335242CA500C2123685F
:100E1000054A1D6123794B43D3181D752379594326
:100E20005218107570BDC046E400002010B50430A3
:100E3000FFF7D8FF062010BD002805DB1F23184050
:100E40001E3B8340014A13607047C04600E100E04A
:100E5000F7B507008026040000254137D3B2009182
:100E6000FF3701937602C1239B00E3581E4210D046
:100E70003B68002B0DD0D2239B00E650403BE65050
:100E800000233B60009B28009A00184B9B181B6BAB
:100E900098470135019BEDB276000437AB42E2D1B1
:100EA000C1239B00E358DB070DD52300FC335A68B0
:100EB000002A08D000225A60009B04209A000B4BA5
:100EC0009B181B6B9847C1239B00E3589B070CD5CD
:100ED000FC34A368002B08D00023A360009B0520EE
:100EE0009900024B59180B6B9847F7BDE40000209E
:100EF00010B5042201210248FFF7AAFF10BDC04629
:100F00000010014010B5032200210248FFF7A0FFA6
:100F100010BDC04600B0004010B5040004202056AB
:100F2000FFF750FF012223685A60D2222168064B46
:100F300092008B502168403A8B5003230021627944
:100F40005343024A995410BD03000F00640000206F
:100F500010B54068FFF7E0FF062010BD37B5A323AA
:100F60006A46DB00C3588C69DBB2D3714B6A073227
:100F7000A34202D212784C69E2540C004B6A283426
:100F80005A1C4A6224780233002C07D00C69A34211
:100F900000D20B618C699C4200D98B610D699D4226
:100FA00005D9CA68D25C094BC25001203EBD8C698C
:100FB0009C4202D90131CA7FF5E701231800AA42F9
:100FC00002D3A242924150421840EFE71C050000B4
:100FD000F7B547682C20374C019225003E7938350B
:100FE00070432D186A7F002A40D12018826B9446E6
:100FF000002A01D0012068772C2070430500383486
:101000000C356519019A2418AB6023002A606960C9
:10101000E960002528331D70A47FFF2C05D0012333
:10102000A025A340244CED052B512C230022734313
:10103000204C3D68E718FA65C2270432BF00EA5128
:101040002F000022FC37FA60914210D0019B1F78DC
:101050001A4BEF50012902D9019A5278EA5063469F
:10106000002B08D0C12304229B00EA50F7BDE318EF
:101070003933DF7FECE7270038373F182B00FC338C
:10108000DA68002AFCD0002239002800DA60FFF775
:1010900065FF0028F2D12C235E433834A619B27FB5
:1010A000FF2AE3D02B3B9340A021A122C905D20007
:1010B0008B50DBE7E40000200C0500001C0500005D
:1010C00010B5FFF785FF10BD10B5817F0300FF2924
:1010D00006D00122A0208A40A121C005C9004250AB
:1010E000002218005A771A7259681A680830904717
:1010F00010BD002210B5074C074B383421000748BB
:10110000DA60FFF72BFF002802D12000FFF7DCFF99
:1011100010BDC046E4000020FC300040003000401C
:10112000002210B5064C074B643421000648DA60F3
:10113000FFF714FF002802D12000FFF7C5FF10BD04
:10114000E4000020FC400040004000402C2370B52B
:101150000579204C6B43E3189B6B0600002B04D0F1
:101160000368180B40B2FFF72DFE2C236B43E318E6
:101170009B6B3268002B03D0C22304219B00D1500B
:101180002C212300694338335B18DB7FFF2B06D00B
:10119000A0210220C133FF339B00C9055850A02372
:1011A0000021DB00D15033680B4A934209D00B4A2F
:1011B00093420CD02C235D430023383465192B77E0
:1011C00070BD074B103300221A601A71F2E7044B0E
:1011D0001833F8E7E40000200030004000400040F1
:1011E0006401002010B503004A6B886A824208D26D
:1011F000486A805C0C4A985001204B6B01334B636A
:1012000010BD0A002C3210780122002802D00020E4
:10121000DA61F5E70C6A640603D52D31DA610A70EC
:10122000EEE710005A61EBE71C050000F7B505007A
:101230000A002B002F3210780C00FC33002854D108
:10124000496BA76A0191996A8C46002911D098626E
:1012500001236B611370019B0120BB421AD1FC3545
:10126000AB680120002B15D000202D34A860207021
:1012700010E0196A00290ED061461962996A0029A6
:1012800002D061469962E3E721002800FFF7AAFF38
:101290000028E0D1FEBDDE68002EDCD0D9609E6A59
:1012A000002EEFD1636BA26A9342D4D2A322D20064
:1012B000AA58616ACA54636BA26A0133511E636300
:1012C0008B4209D1216A490614D4802302229B0053
:1012D000EA5001232B62BEE79342FAD1236A5B06F0
:1012E000B9D502232D342370D4E700229A621A6202
:1012F000DA60B4E79342ECD1F3E773B52D4B02000B
:101300000E0001930023FC322F3693609362136228
:10131000D3604B63337080238A6A04000D009B0006
:10132000012A16D10A6A520613D40222E25001237E
:101330002A0023622D321278022A00D023602B6803
:10134000002B11D01C4B1D48AB60AA687E33E250C5
:1013500076BD0122EAE729002000FFF767FF002899
:1013600005D0019B013B0193019B002BF3DC3378FB
:10137000002B0BD11148019B002BE9DCA02300229C
:10138000DB00E25005320E48E250E1E70D4AA35877
:10139000A350002BEED001200B4A1840013810401A
:1013A0000A4A80189A0700D509485B07E3D509481F
:1013B000E1E7C046A0860100860200000000AD0BF8
:1013C0000100AD0BC40400000100FFFF0000AE0BE4
:1013D0000100AE0B0200AE0B73B52B4B0200019364
:1013E0000023FC32936093621362D36080220E006C
:1013F000920083500A002F364B633370013303622F
:101400002D32127804000D009A4200D0836029002A
:101410002000FFF7E7FE2B68002B0FD01B4B1C486A
:10142000AB60AA687E33E25076BD29002000FFF74A
:10143000FDFE002805D0019B013B0193019B002B81
:10144000F3DC3378002B0BD11148019B002BEBDC34
:10145000A0230022DB00E25005320E48E250E3E711
:101460000D4AA358A350002BEED001200B4A184080
:10147000013810400A4A80189A0700D509485B07CE
:10148000E3D50948E1E7C046A086010086020000D6
:101490000000AD0B0100AD0BC40400000100FFFF14
:1014A0000000AE0B0100AE0B0200AE0BF0B585B034
:1014B0000393A0230E00052100900192027A406858
:1014C000DB00C150022037314A43594B0A9D9A181C
:1014D0004E321070F2B20292012294466746009A90
:1014E0005C1C167A506871439A1D52184732127864
:1014F0003D4243D062453FD0C2224E4E9200641816
:1015000086504F3422785E18D7B2002A13D0C123F8
:10151000B26A9B00C250484B0020484A93426DD0AB
:10152000474A1320934204D0464A6E20934200D18A
:10153000052040427AE0624622700A006546203368
:101540000C329A1837641570029D97605570019D92
:1015500017615560039D5918D560019A7564B2648E
:10156000B122029DD2008550FFF7C7FE326A030008
:10157000002AD1D12270CFE7334BCDE7022A3BD0EE
:10158000C2222C4E9200641886504F3427785E1881
:10159000FAB2002F06D0C123B26A9B00C250264B7C
:1015A0000198BAE7654625700A9D6F086546BD43F8
:1015B000356420250F00AC460C379C44029D6744DF
:1015C0007D70019D3A707D60039DBA60FD603A6157
:1015D000B127019D5B18B564039D4C337564029D72
:1015E000FF001A70C5516144FFF7F6FE326A03002E
:1015F000002AD5D12270D3E7134BD1E7009B80247A
:101600005A681E7AC2230B499B00D1500323A400C1
:1016100011599943A02311510021DB00D1503C23E3
:1016200001225E43024B9B194E331A7005B0F0BD88
:1016300064010020864204000B00AD0B0000AD0BDE
:101640000100AE0B0200AE0B0500AD0B0B00F0B5B8
:101650002F331C7887B0002C1DD10A7B931E012BE1
:1016600019D84B6A8D69AB4215D10D00CB692C3569
:101670004B624B698B620B6A9B06DB0F2B700B0076
:101680002D331C70032A03D1FFF7A6FE07B0F0BD6F
:10169000FFF733FEFAE70A0001AB0C32E0CAE0C301
:1016A00060CA60C3002C1DD0104A835883500222A8
:1016B000134203D001236A46137003E058070DD587
:1016C0006B461A700B00002230331A700B6A5B07EE
:1016D000DCD40B68684649689847D7E7DB07F1D543
:1016E0000323E8E76B461C70ECE7C046C404000027
:1016F00010B5064C06485C342100FFF797FD002822
:1017000003D121000248FFF7A1FF10BD64010020B2
:101710000040004010B5064C064820342100FFF779
:1017200085FD002803D121000248FFF78FFF10BD7F
:1017300064010020003000400122094B10B51A60FE
:101740000022084B1A60A123074ADB00D05883050A
:1017500001D5064B1843064B9B69984710BDC04600
:1017600004C0004000C1004000C0004000FCFFFF7A
:10177000E4010020A020F0B5264B274A196C274C25
:1017800085B0C000002914D1C22511600122AD002E
:101790006251215069460A71A1216846C900615809
:1017A0000181190034310A755B6B01A8984705B0B7
:1017B000F0BD0026166026501800A1250830C28F03
:1017C000ED0067595500013292B26F52C287981DE1
:1017D000C08F012582420AD3C2229200A5506A46D8
:1017E000167190811A00343202911575DCE7DA6BBC
:1017F0001068002801D13500986BD8630430FEF7DB
:101800003FFDA0220123D200A350002DCFD02360A2
:10181000CDE7C04664000020007100400070004029
:10182000C12330B5524C9B00E258524D85B0920511
:1018300053D5AA6A002A50D000238122AB62C2236A
:1018400092009B00E2504C4B1A0031321278002A71
:1018500001D101326260022269460A709021C900FA
:1018600062586846625003921A6A996802925A69ED
:10187000019200221A625A62DA6890472B6A002BA2
:1018800013D03D4BD9699A6A914261D91A0030321E
:101890001278D1B2002A5BD129629A6A1969895CEF
:1018A0009A6A01329A62354BE150AB6C002B12D030
:1018B0000023AB64304B1A0031321278002A01D079
:1018C000012222601A6A002A05D00022D86A5969CA
:1018D0001A62FEF72BFC05B030BDE3585B07CDD58F
:1018E000EB68002BCAD0A322234BD200196A00292F
:1018F00013D1E960A258DA6A196A9142BED15A6AD4
:10190000002A14D01A629A6959695A610022D86A69
:101910005A62DA62FEF70AFCB0E70021E960D96A90
:101920005869A2584254DA6A0132DA62E3E71A00CF
:1019300031321278002A01D101326260C222812143
:1019400092008900A1500022D86A59691A62E1E721
:1019500000222A62D9699142A7D06846D9690270EB
:1019600002911969DA610191DA68996890479CE7F8
:1019700000200040FC200040640000201C05000006
:101980000E4B98420AD00E4B984213D00D4810E0EF
:1019900019600121197182F31088F7E70A4B10339F
:1019A000EFF3108272B618790028F1D082F3108814
:1019B00006487047044B1833F2E7C0460030004039
:1019C000004000400000AD0B640100200B00AD0B97
:1019D000F0B585B003922C250379574C0193230071
:1019E000019A383355435B191B7F06000F000293A1
:1019F000002B00D09CE0514B92009B18596A006864
:101A0000FFF7BEFF4E4B984200D093E0029B641953
:101A1000A363039BA021E36301233C7B3A78C905C0
:101A20009C4200D975E09340464A01248B503B7894
:101A3000C133FF339B00CC507A78FF2A00D16CE091
:101A40009440404BCC5013000324C133FF339B0020
:101A5000CC50BB78FF2B63D0A024B97B9C46C1330C
:101A6000FF3389009B00E40519512C253179324B55
:101A70006943BC7838335918CC77F978FF290CD0F2
:101A80000123A1248B40A021E400C9050B510324AC
:101A9000FB78C133FF339B005C50274B347919002E
:101AA0003831029121002C244C430299FD780C1905
:101AB000A577A1243D783168E4000D51214C0A51ED
:101AC000A2226446D2008C50BC681F4A8C507A7B9C
:101AD0003C7B551EAA41022C26D0032C26D0012C7B
:101AE00001D1013422432C25184C38330A51327964
:101AF0007C796A439A180132D477A0240122E40049
:101B00000A5101994D4300215B1959771A7705B0A5
:101B1000F0BD9340A122D20087E70122524298E70C
:101B200001235B429C46A0E70424DBE70624D9E7B7
:101B30000748ECE70748EAE7E4000020409101008D
:101B40000000AD0B0C05000024050000540500004A
:101B50000500AD0B0B00AD0B10B5040083680A68DF
:101B60002948824223DC802292049A6048688A686D
:101B7000A368002841D1002A3DD11A73FF23A2682F
:101B800053710B695A1E9341A2685373A1682200D6
:101B90006068FFF71DFF1D4B984207D16068FFF793
:101BA000D5FA2200A1686068FFF712FF10BD18483F
:101BB000824202DC8022D204D7E71648824202DC4D
:101BC00080221205D1E71448824202DC80225205AD
:101BD000CBE71248824202DC80229205C5E710481A
:101BE000824202DC8022D205BFE70E488242EDDC51
:101BF00080221206B9E70122BFE7002A01D1023292
:101C0000BBE70322B9E7C04648E801000500AD0B79
:101C100090D0030020A1070040420F0080841E00E6
:101C200000093D0000127A0010B5024B9B699847ED
:101C300010BDC0466401002010B5024B1B699847D7
:101C400010BDC04664010020FEE77047F0B51D4F8F
:101C50001D4E3B00347FFC33996BA31C9B004A88CC
:101C6000CD185B5A5A439212EB78002B1AD0AB78FE
:101C700001259D40A0202B00A125C005ED000134C9
:101C80004351E3B29C1CA4000D19645AA44660465B
:101C90004C884443A412A01A944201D03377F0BD7B
:101CA0001C00E1E7A0203D00084A4C68C0058450B4
:101CB000FC35EC6B1A00002CE4D02100AC63EB6324
:101CC000E0E7C046E4020020E40100200C0500002B
:101CD00010B50024074B1A0028321278A24200DC0B
:101CE00010BDA2009B181A6A002A01D01B6A9847EF
:101CF0000134EFE7E401002070B51F4C1F4D636C09
:101D0000002B0AD0002363641D4B5B689847A8230F
:101D1000DB00EA5800018018E850A36C002B09D0C2
:101D20000023A364164B9B689847164B0001EA58A2
:101D30008018E850E36C002B0AD00023E364104BBA
:101D4000DB689847A923DB00EA5800018018E850B7
:101D5000236D002B0ED000230B4A2365AB580B4993
:101D60005B18AB500A4AD36A0633D3628022094B10
:101D700052035A6070BDC046FC9000400090004085
:101D800000000020440500004C0500007017000012
:101D9000E4010020FCE100E0012040427047002304
:101DA00073B50120A1251E000A4A0B490193ED00DD
:101DB0001360086001A81468002CFCD016604C5910
:101DC0001C540133042BF6D10122044B1A600198F4
:101DD00076BDC04600D1004000D0004004D0004095
:101DE000234A244B900A8002C31870B5D41AE11715
:101DF0008905890D0919204D8912204C2972204925
:101E0000204E411800190024864204D31E4834187D
:101E1000641AA40AA4020C19111B1C1B2B00CA175C
:101E20009205920D52182C339212E4111C706A72B2
:101E3000FFF7B5FFFF21214017F092F8134E013153
:101E400030363170FEF73CFB03780400FD2B04D1E3
:101E5000E0239B00C418AC6270BDFEF727FB03783B
:101E6000803CFD2BF7D0FD21FEF768FEF3E7C0466E
:101E70000000040000FCFFFFE4000020017CFFFFE5
:101E80000080FFFF00000300FF030000E4010020CA
:101E9000F0B53F4B85B030330193019B1D783D4B2E
:101EA0002C009E6A2C331B780133E201925DFF2ADD
:101EB0006AD00134E4B29C4200D10124AC42F4D196
:101EC0000021E201B018B25C574257418205C9199E
:101ED000002A0DD18022D200944602008444177853
:101EE000002F05D180329445F9D1FEF76BFD4BE010
:101EF0000134E4B2A34200D10124AC42E1D107296C
:101F000041D9FEF7DDFA0378FD2B0BD102AA13713C
:101F1000FEF7D6FA80270400FEF7C8FAFF0000900B
:101F2000260022E0FEF7C2FA037802AA1371FEF738
:101F3000BDFA0400FEF7C4FA174F0090F0E7300036
:101F4000FEF740FD3000FEF73DFD0025E419635D1E
:101F50006119002B03D080227019FEF783FD8023C6
:101F60008035DB009D42F2D1F619009B9C42E6D100
:101F70002000FEF727FD0122200003A9FEF772FDD5
:101F8000FFF72EFF89E7FF24200005B0F0BDC04613
:101F9000E4010020E400002000FCFFFF70B5084BC6
:101FA0000400FC331E6B4518002E05D170BD21784E
:101FB0003000FEF725FC0134A542F8D8F6E7C0460C
:101FC000E402002010B5124B02221869C2239B00C4
:101FD000C250104B596B104BC2580300FC339B6826
:101FE000002B05D080231B049A429B415B42C918F9
:101FF000C12302249B00C450084B100C92B25843DA
:102000005343C0015B0AC018054B5943401810BD2B
:1020100000000020E401002004050000093D00004C
:102020000080841E10B5104B02211A69C2239B0048
:10203000D1500E4B596B0E4BD4581300FC339B6898
:10204000002B05D080231B049C429B415B42C91896
:10205000C12302209B00D050FA237B306043DB0277
:102060004B43000BC01810BD00000020E40100200D
:102070000405000010B5052804D1084A536B01334C
:10208000536310BD0028FCD10548064B026910308F
:10209000D1582131FEF708F8F3E7C046E4010020EB
:1020A0000000002004050000802340109B05C0189C
:1020B000C0234910401A80001B064008C0180123A5
:1020C0001843704710B5FFF77DFF034B40001840E1
:1020D0000123184310BDC046FEFFFF7F10B5FFF778
:1020E000A1FF034B400018400123184310BDC04618
:1020F000FEFFFF7F70B51149114D8E69CB693835F0
:1021000073432A78086A9B181B181C001D20C441C1
:102110001B382043C8611E20C34173408B610C6291
:10212000190A5140012261404A40A00CD2B26040DD
:102130005B012A7058405200504070BD00000020E2
:10214000E401002070B50124050022002B0023408B
:10215000AB4205D3FFF7CEFF20408542FAD970BDD0
:1021600064001443F2E7027AA02311000120C13178
:10217000FF31DB058900C958014204D003495B588F
:10218000D34018407047A221C900F8E704050000B9
:102190000123027AA0219340A122C905D2008B50CD
:1021A00070470123027AA0219340024AC9058B504F
:1021B0007047C0460C05000030B585B008AC2478E7
:1021C0000293631E9C41056864002D6B009403928A
:1021D0002C69012202ABA04705B030BD30B585B0F7
:1021E00008AC257804680293246B03230392002D26
:1021F00000D1023B00930122246902ABA04705B045
:1022000030BDF0B50500002787B0083B0E001BB2BB
:10221000110005AA002B14DA00243B00310028002D
:102220000094FFF7C9FF012303900093B8420FD039
:102230002300220031002800FFF7BEFF039807B0FB
:10224000F0BD0800D840083BD0551BB20137E1E78C
:10225000310028000D9B0C9AFFF7C0FF0390EDE7BB
:10226000F0B5C368A1241A7A01231D009540A0226D
:102270001E00E400D20581681551C068047A25006B
:10228000A640C135FF35AD00A858844667461840C2
:102290001F420AD009481058E040184003D10029D5
:1022A00000D16E38F0BD0139EEE7A227FF00D75903
:1022B0003E42F2D10800471EB841EEE70405000097
:1022C000F7B50400C068009101920827FFF769FF85
:1022D00000262000FFF7C4FF051E1BD12069FFF771
:1022E00042FF76000643013FE068FFF75AFFF6B26F
:1022F000002FEED1009B1E70019B002B02D12069A4
:10230000FFF74FFF2000FFF7ABFF051E04D0206949
:10231000FFF73EFF2800FEBDE068FFF742FFF6E74B
:10232000F7B5060015001F0014000191019B591913
:10233000091B002C01D120000AE00022013C974239
:1023400001D0624262413000FFF7BAFF0028EDD0B1
:10235000FEBDF7B50500C06801910726FFF721FF14
:102360000127019B286933413B420BD0FFF710FF47
:102370002800FFF775FF041E07D02869FFF708FF44
:102380002000FEBDFFF70DFFF2E7E868FFF709FF49
:10239000013EE6D22869FFF7FBFE2800FFF760FF49
:1023A000041EEDD12869FFF7DEFE0400E868FFF7A0
:1023B000F8FEE5E7F8B506000F0015000024A54279
:1023C00001D12800F8BD3000395DFFF7C2FF0028B9
:1023D000F8DB01D10134F2E72000F3E770B5040027
:1023E0000069FFF7DEFE2000FFF73AFF05002069D5
:1023F000FFF7CEFE280070BD70B504000069FFF73E
:10240000C7FE2000FFF72CFF051E02D12069FFF751
:10241000C8FE280070BDF0B587B007000D0016009B
:102420000193FFF7E9FF041E55D1690001250C9BBC
:1024300038002B401943C9B2FFF78BFF041E4ADB5B
:10244000002843D10595731E0293002E09D10C9BE1
:102450009B0740D53800FFF7C1FF00283BD00400A0
:1024600039E0019B059A60CB0C9B134212D12B19CA
:10247000250003940493049B9D420FD0039B3800D6
:10248000F31A595DFFF765FF041E24DB00281AD1FB
:102490000135F0E7013D6B1C06D12500019B2C00A6
:1024A0000833029E0193CEE7029A731C2A430393DA
:1024B000310053425A413800FFF702FF013D002826
:1024C000CDD1039EE7E700230293E7E7380013240A
:1024D000FFF784FF6442200007B0F0BD10B5002470
:1024E000025D0B5D002A13D0002B0DD17F2A08D886
:1024F0000C210B4B985C0123084202D15F3A5342F6
:1025000053410120C01A05E09A4206D10134E7E7A1
:10251000584258410123184010BD0020FCE7C04636
:1025200020A9010010B54A68014914F041F810BD16
:1025300069F2010010B5024914F03AF810BDC04626
:10254000D10A020010B54B6802495A7914F030F8EC
:1025500010BDC04678F2010010B50A7A014914F0A6
:1025600027F810BD86F2010037B5A0230A7AE021D2
:10257000DB059400E418C9006358094D1B079B0F45
:10258000012B03D0074D032B00D1074D6158074B9A
:10259000C90700D4064B0095064914F009F837BD69
:1025A00057090200460902006409020003090200FB
:1025B0001308020090F2010010B50A79014913F0E6
:1025C000F7FF10BDAAF2010010B50A7A014913F015
:1025D000EFFF10BDB2F2010010B54B6802491A7945
:1025E00013F0E6FF10BDC046BAF2010010B5024973
:1025F00013F0DEFF10BDC046C2F2010010B54A68FC
:10260000014913F0D5FF10BDCAF2010010B5040056
:102610000AF0A7FC044B2C33834202D16068FEF71A
:1026200095FD062010BDC046409101000F22832178
:10263000F0B51D4F1D4E9743B81B83B08900C000F5
:1026400016F008FCAE231A4D5B00E850043BEE5038
:1026500083191A00B0235B00EA500192B222830171
:10266000FB1A5200AB50B42304005B0002000021AF
:102670003000EF5016F0D3FAA20007320021019883
:10268000D20816F0CCFAF82380225B005202EA50FE
:10269000FA22002301215200AB5049420432A950D2
:1026A0000432AB5003B0F0BD00300020E404002041
:1026B000E402002070B54668040035008E4200D95F
:1026C0000D002000012115F07AFCA0686B1C721B24
:1026D0004119C01816F091FA6368A06801334019D7
:1026E000636070BD10B5182015F064FD78220A4BA8
:1026F000FC3358630280596B743A4A80596B062048
:102700000A71596B4A710022596B8A71596B0A61BF
:102710005B6B5A6110BDC046E402002010B50C206E
:1027200015F048FD034B68330360034B43600123FE
:10273000037210BD409101008D33000070B504009C
:102740000C2015000E0015F035FD0B4A1300243344
:10275000002D01D0130060330360084B04719B6AA5
:102760004471E4011C19A378023383710123C671FB
:102770004572037270BDC046C0910100E4000020A4
:1027800070B50400881C80000D0015F013FD057065
:102790002378AB4200D92B00082202339B009A42D7
:1027A00000D170BDA15881500432F8E7F7B58022FE
:1027B000D200521A06000B00019272B600213D4A67
:1027C000FC32D46BD16362B68C4200D1946B01278A
:1027D000B74062683A4207D13200A0210320C132DB
:1027E000FF329200C90550502200002521780A329C
:1027F0008D4223DB002B20D020000131FFF7C0FFEA
:102800006368019A1F434760237802339B001A5282
:102810000122237802339B00C3189E702378023371
:102820009B00C318DA7001216388021D438003787E
:1028300099421BDB1F4BFC33D863F7BDA800105C2B
:1028400086422BD00135D3E720000139FFF798FFEE
:102850006368BB43436023785A1EAA42E3DD013319
:102860009B001B590235AD002B50DCE71700D37AD3
:102870001489967A01934B1EBD88A54204D97D68C0
:10288000043FFD60013BF7D203339B00C3181C805B
:10289000019C9E70DC7001310432C8E7002BD3D05C
:1028A0002000FFF76DFF636802354360019BAD00B8
:1028B0002B52B8E7E4020020094B10B51A00FC3295
:1028C000526B917900290AD0D96C0029F9D00021E6
:1028D000FC3391715B6B1B69187AFFF767FF10BDC2
:1028E000E4020020421E0F4BFF3A70B59A4216D800
:1028F000041172B60C4E00223300FC33DD6BDA6338
:1029000062B6954200D19D6B28002978FFF738FF09
:102910006B68FC3643604480F063002070BD01208A
:102920004042FBE740410F00E402002070B5164C26
:10293000050163199E6A3068002804D021001C310B
:1029400049190CF0C3F96419206A716802680029FA
:1029500013D18023D2245B02A40013510268443CAB
:1029600014591C4208D0C224A40013510368FC333C
:102970005A6C002A00D0596470BD044BD358C91852
:10298000FDF792FBF8E7C046409201000405000005
:1029900010B50120FFF7CAFF10BD10B50020FFF7EA
:1029A000C5FF10BD10B50A7A044B92009B18D86B76
:1029B000002801D00CF08AF910BDC046E4010020C7
:1029C00010B50CF094FA421E9041024B4833187037
:1029D000062010BDE401002010B5040008000CF032
:1029E00086FA641024180348640004400120204340
:1029F00010BDC046FEFFFF7F70B50CF078FA041ED4
:102A000007DDFFF7DFFA0500FFF7DCFA401B844221
:102A1000FAD8062070BD70B5144CFC34236B002B23
:102A20001FD09B6819001A001D004C31088802391C
:102A300009880C320A35884213D018000E30D18F25
:102A4000C08F88420AD0586C4B1C9BB2D387405C25
:102A5000E98F994201D80023D38770BD01204042FD
:102A6000FBE701200AF00BFC30BFD7E7E4020020AF
:102A7000F8B5150042680C00002A0DD10A274E193E
:102A8000B44201D12800F8BDFFF7C5FF0D2800D1E1
:102A9000380020700134F3E7012201251A606D42ED
:102AA000F0E770B50CF023FA041E07DDFFF7BAFA61
:102AB0000500FFF7B7FA401B844201D8062070BD1D
:102AC00001200AF0DCFB30BFF3E7114BF7B51A0029
:102AD00006000D0001242C3212789F6A0192019B9E
:102AE000A34202D2FF242000FEBDE301F918FB5CE3
:102AF000FE2B09D18B78AB4206D12A00300003317E
:102B000016F0ABF80028EED00134E4B2E7E7C04697
:102B1000E400002070B545680400954200D9150016
:102B20002A00206816F044F823685B192360636864
:102B30005D1B656070BD10B5040016F0ADF80100B6
:102B40002000FFF72BFA10BDF8B5284D060008004D
:102B50002900002273684C310A756A65013AEE64F7
:102B60002B65AA65EB656866FFF7E5FF71680129CB
:102B70002DD9B3684C1E1A5D0A2A28D15A1E002C82
:102B800001DC220008E0105D0A28FAD0013CF6E7DB
:102B9000985C202802D101329142F9D8002C0BDD3B
:102BA000501C814208D1601E002805D001381F5CEE
:102BB0000A2F0CD0202FF7D05B18023B1B78141B78
:102BC0003A3B5A425341A408E418013C00D2F8BDF4
:102BD000074F04223900300015F00CFA04213800A8
:102BE000FFF7DCF9EB6D0433EB65EEE7E401002061
:102BF000042902001FB50C4B02AC3C330093019436
:102C000002230CF067FD029A002A03D0074BFC3325
:102C10005B6B5A806268002A03D0044BFC335B6B09
:102C20001A80062004B010BD40920100E40200208A
:102C3000F0B5654D87B02B0003AE4C3310C9013899
:102C40000093019603230CF045FD29000322643113
:102C500002A8247A15F0ACFF7368012B02D16A46F2
:102C6000137201E0022BFAD0584D03232E006A465E
:102C70004C3636195372337D7F2B42D9200002A97E
:102C8000FDF76AFB524B98423BD114217156032940
:102C900063DDA022E021D205A3009B18C9005A5889
:102CA0004C4802405A5029000722E3088131C818D5
:102CB000C95C2240D140012319420BD02100A0263B
:102CC00002279340C131FF318900F6058F51027808
:102CD0009A4302702B0001204C331A19127D404296
:102CE00091006918C864032A02D99B183033187000
:102CF0002B00FF224C331B19200002A91A75FDF787
:102D00002BFB2200344B2A3292009B18039A5A6004
:102D10002B0014224C3318198256032A35DD9B18D8
:102D200030331B789B09032B2BD1A022A223D20581
:102D3000DB00D3580122E3401340A022E021D2055A
:102D4000A400A418C90062582248023302401B04A0
:102D500013436350062007B0F0BDCBB2032BA2D8BB
:102D6000A2201E4A8B009B180122C0001E589643C9
:102D70008A40C2211E50194E8900725000221A50FA
:102D800091E7013B5A1E9341D7E7D3B2032BE1D819
:102D9000A2271249940064180121FF00E6599B0004
:102DA0000E43E6510E4C1B1900241C601423C3561D
:102DB0009B00ED18EB6CA342CCD0C1239140074A95
:102DC0009B00D150C6E7C04640920100640000203D
:102DD0000500AD0BFFFFFCFFE40200200060004097
:102DE0000061004030B50C4B89B010C9683303ADA9
:102DF00001380093019505230CF06CFC20000AF0CB
:102E0000B0F8064B2C33834203D129002000FEF793
:102E1000A3FE062009B030BD4092010040910100A0
:102E2000F0B585B00393037A040001910092002B62
:102E300002D12D480BF0E8FBC379002B07D02B4AB9
:102E40000379926ADB019B5C009D002B1FD1092353
:102E5000039A13600A3B2FE07E22A379D71AAF4270
:102E600000D92F006079214E0133C001C018B36A28
:102E70003A0018180199FDF7F5FDA379DB19DBB2CB
:102E80007E2B09D0A371019BED1BDB190193002D53
:102E9000E2D1009805B0F0BD0023A371FEF7F8FF62
:102EA0000290FF280AD12079FDF785FE0023039ABE
:102EB00023721C3313601D3B0093EAE76079B66A06
:102EC000C001301802997F30FDF738FE029B61790E
:102ED000D8013018FDF732FE6379DB01F6187F3632
:102EE00033786371CFE7C046D3F20100E4000020DD
:102EF00070B50F4C002805D1FC34256B002D07D18F
:102F0000062505E00D68062D04D10023FC3423635B
:102F1000280070BD28000AF024F8064B10338342C5
:102F200002D1FC342563EBE703480BF06DFBC04690
:102F3000E4020020C0920100F0F2010070B50D0023
:102F40000BF0D5FF040028000BF0D1FF844207DC12
:102F5000001B0130FFF7F6F8201809F08CFD70BD5A
:102F600000200BF051FBF8B5050008680F000BF0CE
:102F7000BEFF0600012D06D1002826DDFFF7E2F88E
:102F800009F079FDF8BD78680BF0B1FF841B022DC4
:102F900006D1864219DA2000FFF7D4F88019EFE74E
:102FA000B8680BF0A4FF051E0ADD201801382900BF
:102FB00015F0DAFF002808DDFFF7C4F86843EDE7F5
:102FC000002802D020180130F1E700200BF01CFB94
:102FD00013B5084CFC34636B188809F04CFD636B27
:102FE0000090588809F047FD69460190022004F0DE
:102FF00033FF16BDE4020020F0B5744D87B02C00FD
:10300000FC34636B002B40D09A79002A3DD0704E7F
:103010009968F26A914238D89A79022A0CD11B69D0
:103020000021187AFFF7C2FBF36A626B0A339360E0
:10303000636B01229A7128E09A79012A25D1D989F6
:103040009A89914204D3DA79002A1BD00022DA81CE
:103050002B00FC335B6B9A895869012A02D0DA890C
:1030600092001058062812D11B690021187AFC35ED
:10307000FFF79CFB6C6B5748218815F075FFA0602B
:103080006B6BD6E79A71636B1A6107B0F0BD05A947
:1030900005F0D2F8FC356B6B00901B698021019321
:1030A000187A059EFFF782FB009B6D6B1F781F232C
:1030B000298848481F4015F057FF698815F054FFCC
:1030C0007C1EE4B20290012E6ED9009B5B78232B0C
:1030D00061D0622B64D1002C5FD0023FFCB2631E32
:1030E0005A4253415B429C46022E61D00122022388
:1030F0000099C95C3A2903D00F200140297101339E
:103100003249FC314F6B387903909E421AD90098AE
:10311000C05C3A2816D1581C864213D9009D023350
:10312000285C0F25284078719E420BD90A204E6BEF
:103130007779784370710098496BC35C1D404B7977
:10314000ED184D71092C3BD8039B2349043B634484
:103150005BB26400002A2ED04C31085B002B2CDBC4
:103160001841FFF7BFFB194B02991A00FC32526B52
:1031700050794143080016490A38C96A0A2800DA1A
:103180000A2040189060FC33596BCA890132CA8109
:103190005B6B02224EE70023A5E7A4460624A3E7C3
:1031A000002201239446A3E7002201239446A7E7C7
:1031B00033000122A4E75A31CFE75B429840D0E7C1
:1031C000019B0021187AFFF7F1FACCE7E402002016
:1031D000E401002060EA0000C092010073B501A97B
:1031E00005F02AF80199FFF770FCFF2802D1FD389D
:1031F0000BF0BAF900257E26134B9C6AC301E31835
:1032000059789B780233DBB2C201A2187F32107862
:10321000FF2815D1C81A401909F02DFC002104001F
:103220000A2004F019FE094B836001230462C36085
:10323000036143618361C36143628362C36276BD9C
:10324000F31AED180023DFE7E4000020010001007D
:1032500007B501A904F0F0FF0199FFF736FCFF283C
:1032600002D1FD380BF080F9FDF7A5FC06200EBD5C
:1032700010B5040008000BF03AFE01002000FDF735
:10328000BFFA064B984206D0054BC0B2013318185E
:10329000C07F0BF069F9062010BDC0460000AD0BE1
:1032A00040910100F0B50C0085B0022830D1012515
:1032B000606803A904F0C0FF039B6D42C31800952A
:1032C00098420AD1206803A904F0B6FF039F019039
:1032D000782F21D902200BF047F90278722A01D009
:1032E000772A08D1009901310FD1723A51425141E8
:1032F00000910130E4E7622A01D0742A05D1691CEB
:1033000003D1743A55425541F3E71E480BF07CF95E
:1033100001256D420095D5E739000198FFF7D5FBEF
:10332000009B0400002B29D1FF2801D0FDF743FCAE
:10333000FEF7AEFD0400FF2801D11C20CBE7124AA6
:10334000C301966AFE21F6183000FDF7F7FBF9B2CB
:10335000B01CFDF7F3FB3A000199F01CFDF782FB6E
:1033600000996A426A414D4269412000D2B2C9B215
:10337000FFF7E4F90028ADD005B0F0BDFF28EFD18C
:10338000A8E7C04603F30100E4000020124B70B52B
:103390001A0004002C3215789A6A237AAB4201D9BC
:1033A000002018E0D9015018515CFE2902D00133E9
:1033B0002372F2E78178033006F00EF90021050050
:1033C000032004F049FD054B8560C36001230361C0
:1033D000237A0133237270BDE40000200100010054
:1033E00010B5054A0379906ADB01C0188178033073
:1033F00006F0F2F810BDC046E400002010B5124AF5
:103400000300916A4279D2018A1814007F3420782F
:10341000FF2808D11879C00109184978FF2910D070
:10342000987988420DD0997952180131C9B25078F3
:103430007E2901D0997110BD00229A7122785A71AB
:10344000F9E701204042F6E7E4000020F7B50192D9
:10345000027A04000091002A02D124480BF0D4F82B
:10346000C579002D3CD1224A976A0279D201D25DFA
:10347000002A35D061797E22C901791808007F3091
:10348000A3790078D21AFF2809D12079C001381811
:103490004078FF2819D0C01A824200D90200019852
:1034A000461B964200D91600002E1DD0009A01330B
:1034B0005019C918320015F07BFBA3799B19DBB2B8
:1034C0007E2B04D0A371AD19D4E70022E7E70023D7
:1034D000A3716379DB01FB187F331B786371F2E71B
:1034E000092201251A606D422800FEBDD3F20100B9
:1034F000E400002070B5002009F056FA0124050010
:103500000C4A13002C331B78A34201D2280070BD53
:10351000926AE301D018D35CFE2B07D18178033087
:1035200006F05AF80100280009F06FF80134E4B2FF
:10353000E6E7C046E400002070B50600002009F070
:1035400033FA022173680400DB00194309F05DF8C7
:10355000064D6B68B34203D12000296809F055F885
:10356000034B08359D42F4D1200070BD689F0100D7
:1035700068A00100F8B50600002009F015FA002542
:103580000400F768737A29011B07200079181B0FC4
:10359000AB4200D8F8BD09F038F80135F2E7F7B5CD
:1035A0000600002009F000FA082405000127002386
:1035B00030001A00A1B20097FEF7FEFD002804D1EA
:1035C00061002800394309F020F80134782CEED14D
:1035D0002800FEBD30B587B00BF089FC0100040067
:1035E00002A814F004FE0025A54206DB064802A945
:1035F000683005F027FA07B030BDFEF7D0FB049B1A
:10360000585501930135EFE7C092010070B50600EF
:1036100086B048680C000BF06AFC010002A814F0A8
:10362000E6FD0021049D032E03D1A0680BF05FFC92
:103630000100039A280015F0F2FA049B03991A007E
:1036400020680193FDF7C4FC034802A9683005F027
:10365000F9F906B070BDC046C092010030B5164BF6
:103660008DB008AD24330C0001380431009301956E
:1036700004230CF02FF8A8680BF039FC010004A813
:1036800014F0B5FD089AEB6891B2059A2068019292
:10369000069ADBB2009203926A68FEF7B2FD002838
:1036A00002DA40420AF060FF044804A9683005F0DD
:1036B000C9F90DB030BDC04640930100C092010071
:1036C0001FB5094C080011001A0003AB0193230039
:1036D0004433009301230CF05DF8042014F06AFDDC
:1036E0004C34046004B010BD40930100F0B52F4C81
:1036F000080011001A00230087B0083302AD0093C0
:10370000019504230CF046F802980BF0F0FB012819
:1037100002D804D1264800E026480AF075FFEB687D
:10372000254A062B38D1002393660023A9689942C5
:1037300000D06B68D36680228323D205DB00D35888
:10374000DB0302D401221D4B1A6020002830FDF754
:10375000E3FB01221A4B1B4E1A6037781A4B1B4AA7
:103760001A63002F0FD103210B20FDF7E9FA0B207C
:10377000FDF762FBA123164A1649DB00D150012256
:103780007770B7703270200069682830FCF78CFCC5
:1037900011481C3007B0F0BD990704D118680F49D3
:1037A000C0888842C0D00E48B7E7C046C093010029
:1037B00028F3010010F30100E4010020080000409C
:1037C00008B0004064000020E40000209B290000B5
:1037D00000B00040FF0F0000409201001B020000FB
:1037E00045F30100F0B54F4D080011001A002B0001
:1037F00089B0383304AE0093019604230BF0CAFF5E
:1038000004980BF074FB0400022803D8012804D1AB
:10381000454800E045480AF0F7FE0C232A004343E0
:103820005832D318F26803938100414B900700D0BF
:103830006AE017683F48FF88874265D15B18DA6302
:103840000C23180029006043583109180A7A5343A1
:103850000292394AD218137D002B2FD12D1818004F
:10386000364F497AD760039FED6D1761DAB2914206
:1038700051D82F0B7FB203213800FDF761FA3800D1
:10388000FDF7DAFA01212E4AA120AB58C0008B4384
:10389000AB5003222B5893431A00022313430F22E9
:1038A0002B5008302B5893431A00042313430C2247
:1038B0002B50029B5A43204B9B1819750C20B36860
:1038C00080215A42534180226043164C52002418F2
:1038D0005B421340E26D890050581A4C013320407E
:1038E0005050505875680343535013000021FC3367
:1038F0005964C12380219B004902D150A823039819
:10390000DB00D55009B0F0BD062A02D100225B18B9
:1039100095E70D487FE79A004132FF32AA18106000
:103920000133A3E7C093010075F3010061F30100C7
:10393000E40100201B020000E4000020A529000093
:1039400004050000FEFEFFFF45F30100F0B508008E
:1039500011001A00474B85B07C3302AC00930194F0
:1039600002230BF017FF02980BF0C1FA002807D1D1
:10397000414B6768FA18414B9A4204D9404800E02D
:1039800040480AF041FE404B404D1A001900BC323D
:103990007A3111601A004021C03211801A00C433FC
:1039A000C232108018803A4B1C78002C4AD1394E14
:1039B00039493000FDF7E4FF384B984242D1A0234B
:1039C000A1228021DB05D20049049950EC22032179
:1039D000D2009950324A8E319C50FF31380015F098
:1039E000C3FA80222F4B120143439B181B0B2E4A14
:1039F0001B03B35019222D4B0621F4502C4B0220EF
:103A0000F2502C4B013AF2502B4B2C4AEB602C4BD2
:103A10000C33AB602B4B1C629C64C1239B00F250A7
:103A2000FDF78EF90220FDF707FAA0230422DB0040
:103A3000F2502B0031331C700123154A2C626C624A
:103A4000EC6113701E4C1049200079311830FCF7DE
:103A50007DFB0E4B31331A78002A06D119498A6250
:103A6000CA600C4901320A601A7020000C3005B09F
:103A7000F0BDC046C093010050FBFFFF903D0F001A
:103A8000A8F3010095F30100E40100206400002088
:103A90009600002000200040211800000000AD0B1F
:103AA000640700006EA30100240500006C050000FF
:103AB000140500000C050000210900008000020030
:103AC00040940100FC200040F0B5214D06000800A4
:103AD00011001A002B0089B003AF20330093019727
:103AE00005230BF0F7FD78680024062802D00BF0C0
:103AF000FEF9C4B2F86800280BD009F0CDFA012312
:103B0000A022317AD2058B40002811D0A121C90012
:103B10005350039BD9B20B005A1E9341039ADBB258
:103B2000D2B2012906D928000A49483009F0EEFE30
:103B30000949EDE75B001343A0220620317AA40077
:103B4000C131FF3123438900D2058B5009B0F0BD4C
:103B500040940100C4F301000C05000010B50C00F6
:103B600013000A1D411E2068FFF7AEFF10BDF0B51F
:103B7000060087B048680C000F680BF0B8F9050024
:103B8000A0680BF0B4F9010002A814F030FB01208A
:103B9000032E02D0E06809F07FFA0090039B380002
:103BA000049AA9B2FEF71AFB002802DA40420AF092
:103BB000DBFC034802A9683004F044FF07B0F0BD05
:103BC000C092010070B5A0240500E405002916D1BB
:103BD000027A01201300C133FF339B00E3580342F4
:103BE00007D00E4BE358D3408340022213401843C2
:103BF00070BDA223DB00E358D3405B00F5E71868F3
:103C000009F04AFA01232A7A9340002804D0A1221D
:103C1000D2000620A350EBE7014AFAE704050000B2
:103C20000C05000010B50C000B1D0022411E206881
:103C3000FFF7C8FF10BD70B50400C3070DD5002302
:103C4000142542102849D2B2280058430818067A91
:103C5000964242D00133202BF6D1A30704D1234B47
:103C6000226804339A423DD0214D2B00A4331868BA
:103C700006280ED021000BF029F8062809D083076A
:103C800004D11A4B026804339A4226D019480AF02C
:103C9000BBFCA8352868062815D1144D0022280041
:103CA000210044300BF0F6FA002817D1280000223A
:103CB000210054300BF0EEFA002802D040680028B2
:103CC0000BD10D48E3E70022210004300BF0E2FAAB
:103CD0000028E2D040680028DFD070BD406800288E
:103CE000FBD1E3E72000F8E704B50100C094010030
:103CF000E4020020D9F30100FFF30100020010B537
:103D0000074B2A3292009B185C680123400018433D
:103D1000FFF791FF010020000AF0D8FF10BDC04658
:103D2000E4020020F0B5364B89B004AD6033009357
:103D3000019504230BF0CEFC049BAC6802936B68E6
:103D40000393002C03D10720FFF775FF0400002721
:103D50002C4E8021FC36736B1F61207A2D7BFEF781
:103D600025FD029BBB421CD01900274815F072F8B4
:103D7000FEF7B8FDB84214D0247A39002000FEF7CF
:103D800015FDB26B3B00100011780A308B4202DB4C
:103D90001E480AF039FC9D00455DAC4223D001333A
:103DA000F4E7039B002B1BDB0022164B039EFC3326
:103DB000596B8A711649586BC96A71188160596BC1
:103DC000CA71596B8A81596BCA81596B4A615A6BA6
:103DD000146102225B6B9A71002D01D0FEF76CFD1D
:103DE000062009B0F0BD02339B00D3181F229A7041
:103DF0000123A021A340074AC9058B50C8E7C0464C
:103E0000C0940100E402002040420F001AF40100B7
:103E1000E40100200C05000070B52A4B88B004AD09
:103E20000093019504230BF055FC274C042322003A
:103E3000FC32516B04980B71526B53710333034086
:103E4000022B06D0830737D10268204B92699A4231
:103E500032D101230295039323000022FC335B6BD4
:103E600068681A61904202D10720FFF7E4FE230040
:103E70000022FC33596B164E8A71596BF66A8E60BC
:103E80005E6B297BF1715E6B0399B1815E6BF28190
:103E90005B6B029A012900D112685A610122FC343D
:103EA000636B1861636B9A712B7A002B01D0FEF75C
:103EB00003FD062008B070BD02AA03A909F0B6FEF2
:103EC000CAE7C04640950100E40200206BB700003D
:103ED000E401002010B500280FD10730FFF7ABFE3A
:103EE0000021007AFEF762FC0022054B0620FC331D
:103EF000596B0A615B6B9A7110BD0868F0E7C046A8
:103F0000E4020020F0B5186885B00C0016001D0012
:103F1000FFF791FE0700012C01D8002E0DD00722DB
:103F2000A300EB180296F6001643039338002A1DEF
:103F3000611E01AB0196FFF7C7FD380005B0F0BD6B
:103F40001FB5184C080011001A0003AB01932300A1
:103F50002033009301230BF01DFC0398C30706D404
:103F6000830710D12300026828339A420BD10AF04C
:103F7000BEFF072805D86434C00020180379FF2B42
:103F80000DD1094809E0FFF756FE837A9B0703D558
:103F90008068C003C00EECE704480AF035FB04B0AB
:103FA00010BDC046409501003CF4010028F401001A
:103FB000F0B5374E080011001A0033008BB02433DF
:103FC00007AC0093019403230BF0E4FB07980AF07D
:103FD0008EFF012858D80C27330047433C33DB19A8
:103FE00060680293FFF727FE3C25037AA0680393DD
:103FF000FFF721FE029B274A1B7A5D4352194E327E
:1040000014780592002C3CD1F7199B003F6C027A82
:10401000F6183800716D0492FDF7B2FC1E4B984201
:104020002FD11C4B029A5B199C625A621C62194B7D
:10403000A0225B194D331C70184B19495B19503382
:104040001C70164BD2055D192B004F331C70039B5F
:104050005735C133FF339B002C709950049BC133FB
:10406000FF339B009950A123039ADB00FA500D4BBC
:10407000049AFA50CD220C4BD204FA500123059A2F
:10408000137002980BB0F0BD08480AF0BDFAC046A4
:10409000C0950100640100200000AD0B6501002007
:1040A0000C0600000C050000240500004EF4010081
:1040B00030B50400080011001A00184B87B002AD9B
:1040C0005C330093019504230BF004FB0298FFF787
:1040D000B2FDE0606868FFF7AEFDEB682061A9689B
:1040E0000F48A360814216D814F0B4FE6060A0228D
:1040F0000021E368D2051B7A2000C133FF339B0007
:10410000995023691B7AC133FF339B009950FEF706
:1041100065F907B030BD01236360E8E7C095010091
:1041200020A1070010B50C0013000A1D411E2068D5
:10413000FFF7BEFF062010BDF0B50D0017001E00F2
:1041400085B000290BD01B68013306D03300FFF780
:104150002FFF0400200005B0F0BD013D04361420FF
:1041600014F028F80722084B29007C330360AB00C9
:10417000F3180297FF0017430393320001AB0400CA
:104180000197FFF795FFE5E7C095010030B51500F1
:1041900087B001220400080003A909F08AF96946E2
:1041A0000222280009F085F90499019B994202D066
:1041B00005480AF029FA2000009B039AFCF708FF43
:1041C000062007B030BDC04660F401001FB50400F2
:1041D0000122080001A909F06CF920000023019ACE
:1041E0000299FCF7F5FE062004B010BD7FB50C0067
:1041F000060001A90222606809F05BF90021019D17
:10420000032E03D1A0680AF072FE0100029A280072
:1042100014F005FD019B20681A000299FCF7D8FEF6
:10422000062004B070BDF0B50D0000271C4B91B006
:1042300008AC2433043101380194009304230BF0BB
:1042400049FAA06805A9012209F033F9089B2868FA
:1042500099B2059B069D0393E3686668DBB2083B51
:104260001BB204AC002B10DA0222039B0D940C97B6
:104270000E950F9303681B6B00921C690CABA04753
:10428000002809DA40420AF06FF93200DA40083BB0
:10429000E2551BB20137E5E7062011B0F0BDC0467C
:1042A0004093010030B50C00114B8BB006AD2433A8
:1042B000043101380093019504230BF00BFA02221C
:1042C000A86803A909F0F5F8069AEB6891B2049A78
:1042D00020680192039ADBB200926A68FDF791FFB1
:1042E000002802DA40420AF03FF906200BB030BD48
:1042F00040930100F0B5060087B048680C000F68D5
:104300000AF0F5FD0122050003A9A06809F0D1F823
:104310000120032E02D0E06808F0BEFE0090049B4E
:104320003800039AA9B2FDF747FF002802DA40429D
:104330000AF01AF901234000184307B0F0BDF0B5A8
:10434000060087B048680C000F680AF0D0FD022212
:10435000050003A9A06809F0ACF80120032E02D0E3
:10436000E06808F099FE0090049B3800039AA9B217
:10437000FDF734FF002802DA40420AF0F5F8062083
:1043800007B0F0BDF0B58BB003A9012209F091F898
:1043900004980121002805D00231013814F05AFD9B
:1043A0008100053130243C253F2606A813F01FFF6D
:1043B000039A0498089B022828D8002813D0302498
:1043C000117889081970117809012140022835D126
:1043D00050780009014359703C21527892000A40FC
:1043E0009A704022DA703D202F242B25079B089AD3
:1043F000591E01935118914223D10A231D480B7075
:10440000683006A904F01EFB0BB0F0BD117803382C
:10441000890819701178577809013F0921403943FB
:1044200059705178977889002940BF0939439970AC
:10443000917803323140D9700433BCE7402259707F
:10444000CEE71378192B03D8413313700132D2E72A
:10445000332B01D84733F8E73D2B01D8043BF4E771
:104460003E2B01D11570F1E73F2B01D11470EDE720
:104470001070EBE7C0920100F0B589B001A90122EC
:1044800009F017F8029901250C001C482C4029421C
:104490002BD1490804A813F0AAFE202320009C4633
:1044A00040242900029A069E019F013A531C06D11E
:1044B000134804A9683004F0C5FA09B0F0BD3B7890
:1044C0007F2B11D80F4DED5C25420DD0303B092BD1
:1044D0000DD8C3181000DBB208400A420BD01B01F4
:1044E000D8B20137013AE1E707480AF08DF865468E
:1044F000AB43073BEDE733700136F2E780F4010090
:10450000C092010020A9010092F4010070B50800DA
:1045100011001A002A4B8CB0383303AD009301957B
:1045200009230BF037F90398431C46D00723254C89
:104530000340022B04D083070DD10368A3420AD1A4
:1045400003F04BFF204914F0AFFB0123002807D0F4
:104550001E480AF059F80AF0CAFC03000128F7D8EF
:104560000C2026004343A8693C36E418646CF61816
:1045700000281ED0EB69002B1BD02B6A002B18D013
:10458000FFF759FB037A2370E869FFF754FB037ABE
:104590006370286AFFF74FFB037AA370FF23E37071
:1045A000FC3B3000237104A9FDF7D6FA30000CB0B3
:1045B00070BD074B23801623EFE70626F6E7C046BB
:1045C00040960100C0960100A6F40100ABF4010082
:1045D00017150000F0B50D0089B00700012228680A
:1045E00001A908F066FF029B002B33D000245E0077
:1045F000012F05D9013B6868F61803F0EEFE0400B0
:104600000F25310004A813F0F2FD069A02990198D3
:10461000013906D2114804A9683004F013FA09B030
:10462000F0BD067833099F2E00D92733303313703D
:1046300003782B40092B00D927333033961C537055
:10464000002C04D0002902D02378D61C93703200AD
:104650000130DDE702485430E1E7C046C092010076
:10466000C096010080220448044B10B5520000217E
:1046700064309A6408F014FEC096010064020020C1
:10468000024810B50249203008F00AFE40970100A8
:10469000BDF40100F0B50E68050033680C001F6B17
:1046A00085B0BB68002B01D1FFF7EAFF02226068EA
:1046B00001A908F0FEFE0123022D03D0A06808F036
:1046C000EBFC03003000BC68029A0199A047002867
:1046D00002D0404209F048FF062005B0F0BD30B5D9
:1046E0000400236808001D6B85B0EB68002B01D126
:1046F000FFF7C6FF012201A908F0DBFE2000EB68EE
:10470000029A01999847002802DA404209F02CFFEA
:1047100001234000184305B030BD10B503681B6B82
:104720005B68002B01D1FFF7ABFF9847002802D050
:10473000404209F019FF062010BD10B503681B6B3D
:104740001B68002B01D1FFF79BFF9847002802D080
:10475000404209F009FF062010BDF0B58DB00122DE
:1047600005A908F0A6FE0321059B08A80193069B56
:10477000012502939B085943013113F028FD0021C4
:104780000C000A0008000A9B0293069B03938B42CD
:1047900004D8002A39D0204809F036FF019B5B5C21
:1047A0003D2B06D1022A30D0042A01D1002C2CD175
:1047B0002C001E00413EF7B2192F10D833008001A3
:1047C0001843931D072B1EDD099B023A5C1C0994BC
:1047D0000400D440029EF45400240131D5E71E00A9
:1047E000613E192E01D8473BE9E71E00303E092EF5
:1047F00001D80433E3E72B2B03D02F2BEDD110335B
:10480000DDE73E23DBE71A00E6E7044808A9683045
:1048100004F018F90DB0F0BDD9F40100C092010008
:1048200010B5040009F019F90AF061FB002809DD50
:10483000FDF788FC08F01FF904220100200009F0B0
:10484000CDF810BD024800215C3008F029FDC046BB
:104850004097010010B50AF02FFC4522054BDA61A4
:10486000A4329A6100221862034B062038331A7072
:1048700010BDC04600000020E401002010B50AF081
:1048800036FB0400202801DC002802D1002009F0BA
:10489000BBFEFDF72FFC20231C1B213BE3401840EF
:1048A00008F0C6F810BDF0B58BB002AF050048683F
:1048B0000C000E680AF01BFB0C23FA18043BF918D5
:1048C0003860C918A06809F0B1F901237B60032D95
:1048D00003D0E06808F0E0FB78603B69002B00D172
:1048E00001336A46DB00D31A9D46002402AD3B69C2
:1048F0005A1E3A61002B18D1002C02D12C606C603A
:10490000013432683988126B126994467A68002A39
:1049100000D002232200009330002B006446A04701
:10492000002818DA404209F01FFE08210C237918EC
:10493000C918FB680122186808F0BBFDBA69002A93
:1049400005D0E300EB181A607A6901345A60FB68FD
:104950000433FB60CBE70123BD464000184309B098
:10496000F0BDF0B587B006001F0005910392012A43
:104970004ED17B683C68029333680C9A1B6B0092A3
:1049800030005D692200029B0599A847039B060041
:10499000012B15D90C9BDB070FD5039B3C00DD00D9
:1049A0007D190027029B2268D919606814F000F96C
:1049B00023680834FF18A542F4D1029812F0CCFD08
:1049C000300007B0F0BDDA00BA580133A418039ADA
:1049D0009342F8D1200013F0EDFB01230C9A0290D2
:1049E0001A4004920C9A1A42C6D13D00049C049BC2
:1049F000039A9342C0D0029B2A681819696814F080
:104A0000D7F82B680835E418049B01330493EEE7CC
:104A100000231C00DBE7C046F0B51C4C0F25260028
:104A200027003D3683B0FF36083F206828421FD15B
:104A3000B2235B00FB5898421AD3B4225200BA58F2
:104A4000904215D2AC22C31AD8172840C018520081
:104A5000BA5800118308D1180191D35C03219C46F8
:104A60000B00624603405B001A410A40012A04D051
:104A70000434A642D9D103B0F0BD9940634619432E
:104A8000019B197012F04EFFF2E7C046EC020020C5
:104A9000F7B5050008F065FA040008F009FA0028E7
:104AA0000BD11B4C290018340222200009F0F6FA21
:104AB0002000184912F092FBF7BD174AE1682B005D
:104AC000914200D02B699A680192002AE9D0DC88D3
:104AD000002CE6D00E481149183012F07FFB033C41
:104AE000002CDEDB0A4F019BA60018379A593800CC
:104AF0000B4911F05DFD019B08339A59002A02D140
:104B000038000449E9E73800064911F051FDE6E7AD
:104B1000C097010004F90100E1D70000EBF40100A7
:104B20000FF501001BF501007FB5050010200C00FA
:104B3000160013F03FFB002344608460A4190100B9
:104B40000360C460034A2800034B10F0A9FC04B0C2
:104B500070BDC0461F190100E11A01000EB403B573
:104B6000054804AA05494830019208F071FE02B0D8
:104B700008BC03B01847C0464094010024F501006A
:104B800070B504000D00232201210DF093FE0322D5
:104B9000A36A0421033393432000A3620CF0F4FCC6
:104BA000056070BD10B5040014F076F80100200017
:104BB000FDF78BFFFF38431E9841400010BD1FB525
:104BC000040014F069F80100782802D9022009F0E5
:104BD000CBFC2000FDF779FFFF28F7D00022110061
:104BE000FDF7ACFD0028F1D0094B01900293094B71
:104BF0002000039314F050F80100200013F050FA45
:104C00000199029A039B10F04BFC04B010BDC04602
:104C1000FD330000790B0000F7B5254A254E4C32D4
:104C20001378002B04D124490B60B3610133137056
:104C30000023224C224D236001332B60B369002BEB
:104C40001AD10A272368002B11D1FDF7BBF9019077
:104C5000FDF7B8F9019BC01A0328F9D9013F002FCD
:104C6000F0D10122174B05201A6009F07DFC0023CA
:104C700001222360134B1A60A123DB00EB589A0535
:104C800001D5114A134319245C4301230D4A1360D3
:104C9000B269002A05D0C22292000C20AB50FCF76A
:104CA00091F80022024B20004C331A70FEBDC04622
:104CB00064020020E401002004C5004000C100405F
:104CC00000C0004004C0004000FCFFFF10B5FFF72B
:104CD000A3FF43000120184310BD144BF7B580001B
:104CE0001B181F6AC223124D9B000191EF50012334
:104CF00044192364A8230F210E4EDB009C46E35881
:104D0000AE59921BD218D3170B409A180A4B1211A6
:104D10001818019B01324360C1239B00EF5063468A
:104D2000120196190020E650FEBDC046C097010052
:104D3000009000404C05000000000020F82110B554
:104D40000A4B49005A5A01325A52002204315A5031
:104D5000FC331A67FFF760FE68460549091A89089F
:104D600012F04AFE12F08CFE10BDC046E402002094
:104D70000040002070B50B4B0400FC331E6B45183F
:104D8000002E0CD170BD23780A2B03D10D213000E9
:104D9000FBF736FD21783000FBF732FD0134A542E8
:104DA000F1D8EFE7E402002070B5050014006A684E
:104DB0000800013A012A04D82100FFF7DBFF200098
:104DC00070BD012201241A606442F8E730B50C007E
:104DD00085B011001A000A4B02AD02906846039498
:104DE0000095019311F0C6FA002C05D06A68029B69
:104DF000002A03D1013B1A7005B030BD0022FAE74A
:104E0000152B00000CB407B504AB04CB0193FFF7DE
:104E1000DDFF03B008BC02B01847030007B5042843
:104E200004D801000748FDF7B9F807BD0621064A76
:104E30006846FFF7E7FF442301006A460131135437
:104E40006846F0E74CF5010051F50100F0B59C4DC6
:104E50008FB0EF6C6C6D7B6806000293002C00D065
:104E6000BFE1431E042B08D82B6D029A934215D044
:104E7000012800D133E2032810D0052E00D11CE216
:104E80000D2E31D18F48FDF756FE380013F0F4F89F
:104E90002B6DC718C35C002B03D1002630000FB068
:104EA000F0BD894D2B000833D86F002804D039009D
:104EB00013F0FAFE0028F0D0380013F0EDFE461C87
:104EC000300013F0E8F8041EE7D03200072639005E
:104ED00013F06EFE7D4B1A68013E5A60043B002EB3
:104EE000F9D10835EC67D9E701231B2E00D181E108
:104EF000082E01D07F2E23D1E96D2B6D994200D869
:104F000079E10122B868D21AC65C202E16D1D618D3
:104F10000133B4469942F7D863460126032B00DDDE
:104F2000033638003200891B12F067F90127300080
:104F3000FFF773FFEB6D9E1BEE65DAE10126F0E7EC
:104F4000092E00D042E1BE682B6DF3180593EB6D7E
:104F5000F6180196019B5F1E059BBB4249D9019340
:104F6000594B5B695A68DB6803920693584B2C33A4
:104F70000493019DAE4202D92B782E2B4AD1019B7E
:104F8000EF1AAE4248D8069A039B944663440993AD
:104F9000002302251E00079303930693099BAB424F
:104FA0004ED8002E00D080E0059B019A934200D09D
:104FB00021E1474D3A0034352900180013F04DFE29
:104FC000002800D017E10723ED19DF1B00D112E103
:104FD00000267B1C00D1C0E0394BAC5DDA6DD86C8B
:104FE000B118FDF767FB01360470BE42F4D13400FE
:104FF000BFE03D7828000CF0D1FC002808D1280043
:105000000CF0C1FC002803D15F2D01D02E2DA7D1BB
:1050100001979FE70135ADE73900019812F0A4F937
:10502000011E00D1E7E0012304980CAA0CF038F827
:105030000C9B0493002B00D1DDE06B1C019398E7DF
:1050400028000BA912F06EF90B9B08909F4228D8FC
:1050500001003A00019813F03FFE002821D10123FE
:10506000290004980CAA0CF01BF80C9B002B18D0FC
:10507000069B0B9A002B0DD03B0003998B420CD85A
:105080009A420AD30699C85C0899C95C88420AD139
:105090000133F2E7089B039206930795002E00D197
:1050A0002E0001357AE70393F7E7079B9E4203D072
:1050B000039B9F4200D386E0069BDD19039B84E798
:1050C000E401002055F60100E402002080030020E6
:1050D000C097010030000BA912F024F90B9B069039
:1050E0009F4231D801003A00019813F0F5FD031EEC
:1050F000059029D10133310004980CAA0BF0D0FFA0
:105100000C9B002B20D00F22039B0F33DD17154083
:10511000ED182D11039B2D01ED1A012D00DC10352A
:10512000039B0B9A5B199B18402B44D8059B9D420F
:1051300039DC81480699183012F050F80B9A039B1D
:10514000944663445B1903930136079B9E42C1D981
:1051500079487A49183012F041F8794D686EFDF7B8
:10516000EAFC2B6DEA6DD11AEA6C9068C018FCF766
:1051700015FF734D029AEE6C7368934203D20321BC
:105180007048FCF70BFFEF6D7368D91BB368D81933
:10519000FCF704FF7068C01B001BFFF73EFEEB6DC1
:1051A0001C19EC6527E06849684812F017F8059B60
:1051B00001330593BAE76048069A6549183011F043
:1051C000F7F90B9BBFE740230393BEE73300203B77
:1051D0005E2B10D83800E96DFDF76CFA01240670DB
:1051E000C7E7012C0AD104234F2803D002235B28F0
:1051F00000D000236B65012676424FE6022C62D177
:105200000300303B092B04D803234C35AB602875D1
:10521000F1E700246C6541281CD1AB6D062BEADC5C
:105220004C4A591C21339B00D3185A68A242E2D041
:105230002A6DA9657A603800596812F0EDFE2B6D71
:10524000EA6D0127D61AEA6C5468E41A002E00DDD4
:105250006DE68EE7422811D1AB6D002BCBDB2A6DBA
:105260000299013BAB658A4200D922007A605A1C40
:10527000E5D0384A20339B00D318DCE743280FD110
:10528000EB6D029A9342A4416442002CB3DDEB6CB7
:10529000EE6D986821008019FCF780FE341980E7D4
:1052A000442806D1EB6D2A6D9342A4D9270001262C
:1052B0003DE6482813D046289DD10027029BEA6D81
:1052C0003E009C1A10E00022032C2BD17E2826D110
:1052D0002B004C331B7D312B01D0372B0CD10024FC
:1052E0002700EB6D2A6D9E1A00236B659E4200DD40
:1052F0001DE6002FC9D03CE71900FB2034390142DC
:10530000DBD0332B0BD1E96D029B994207D23800D9
:10531000012211F072FF002401272600E4E7002497
:105320002700FAE7042C04D14628C6D04828D6D056
:105330005FE76A655FE7C046C097010004F90100B6
:10534000E40100205AF5010009F90100D897010095
:1053500056F50100E402002013B5040013F09CFC94
:1053600001002000FFF706FD6B46D81D0A2301212E
:105370000370FFF7FFFC012016BD07B56B46012146
:10538000D871D81DFFF7F6FC6B46D8790EBD10B565
:10539000034B0A0018330100180010F0EBFF10BD9A
:1053A000C09701000FB407B5054804AA02CA183017
:1053B000019210F0DFFF03B008BC04B01847C046EC
:1053C000C09701000023F0B5464F99B004000CA827
:1053D0001500BB64059113F0B7FB01232B40424E2F
:1053E0000393002861D1EB0659D56268A168CA30E1
:1053F000FFF79AFB0400012723682100059A0AA8F9
:10540000049310F0B5FAAA0804993A400AA80FF0DC
:1054100004FF002211000DF013FA032304903360FF
:10542000FCF700FE0400049809F058FC0123380042
:105430005B42336007F023FF12F01AFB039B002B43
:1054400004D039002948FCF7A9FD039FAB071CD500
:10545000274B48331B78002B17D0FCF7E3FD011BCB
:105460002448FFF79FFF0AAB09AA08A907A811F073
:10547000DAFE0A9B089A079900931F48099BFFF7D9
:1054800091FFFFF75BFC12F029FA039B002B03D07E
:1054900001211648FCF782FD380019B0F0BDAB06BB
:1054A000A9D52000FFF78BFBA4E7012300205B4276
:1054B000336007F0E4FE039B002B03D001210B486F
:1054C000FCF76CFD0D9E0D493068643102F03FF829
:1054D000041E02D00024BF6CB8E73000FFF7D8FAF2
:1054E0002700B3E764020020000000205EF5010001
:1054F000E401002060F501006CF50100C096010098
:1055000010B50400FFF74EFB0121022804D1202230
:105510002000FFF757FF0100080010BD0323F0B57E
:10552000E94AEA491360EA4A89B01360E94AEA4B5A
:105530008B4200D2C2E10021E84BE94A934200D2FB
:10554000BFE1E84A1368DBB2012B1ED1E6480368CD
:105550001B061B0F0D2B0BD8E4493C31CB5C002BF9
:1055600006D0E34BE34919608021E34B090219603F
:10557000022103681B061B0F023B8B4305D18021D0
:10558000C1230120C905DB00C8501368DBB2012B21
:1055900011D1D54A12681206120F0C2A03D8934073
:1055A000D64A134207D1D64B1A68012A00D0F5E13A
:1055B000C022D44B1A60012683238022DB00D2054F
:1055C000D3581B0C334201D1CF4B1E60CF4C20006F
:1055D0001030FBF7A1FC637DCD4DCE499A00AA188F
:1055E000116303225343CC495F5C002F15D1142073
:1055F00031002056FBF7A4FB14202056FBF71CFCBF
:10560000A12103222369C9005F50637D5343C24A2D
:10561000D21857709770C04A9E54236900211A000F
:10562000FC329160D1220227200092009F50403A24
:105630009F50BA4A103099582131FAF735FD0322AC
:105640002369B7491E60637D5343B34A9F54B54AEB
:10565000B54B13605B1A913BFF3B53608023802264
:10566000DB05D2009B58334200D19DE100216962E5
:1056700032006B6A80219A4013008022C900D20553
:105680005350FCF7D3FFA74CA84B270063610023BE
:10569000FC371A00E364A362BB64BB65934BA44D63
:1056A0004C33E362A24B10350833A3630323226318
:1056B0006364E563182062637A6512F07BFD2565FB
:1056C000A0642664A665082012F074FD994DE0657B
:1056D000AA22BA212800666509F0CAFE0022A56048
:1056E000E560954D231D11002800DA6707F042F9A7
:1056F0000A21280006F089FF0021904807F03AF9B6
:10570000002120228E4813F08AFA8E4D28005C304A
:10571000FBF768FB28006830FBF764FB2800743057
:10572000FBF760FB04AB1A00814D4C3503CD03C27F
:105730008548002202211030FEF708F923000622D6
:10574000A4331A600023A8342260804A38630621FB
:10575000D1500433802BFAD16F4C230085331B7852
:10576000002B28D121004C31FF205A18013310752D
:10577000202BF9D1213BE36423656365A365E365D1
:10578000230080331870200004220021813013F0A0
:1057900046FA03210620FBF7D3FA40226C4BC121C5
:1057A0001A6000226B4B89001A6080226A4B120635
:1057B00085345A502670FCF713FB684C684BE65052
:1057C000C04600270920FBF7FDFA664D664B674A85
:1057D00066602F60E660E2500222504BC220E75024
:1057E0000433E25008339218E2508023C1221B0395
:1057F0009200A35080239B00E7509C46544B8000AE
:105800001A585B4911408022D2010A431A50FF22E4
:105810000C30195891433F3A0A431A5080225203E0
:105820001A604049424AFC3154328A63CF6351497D
:10583000080028300278571CFFB2077092004E4FC4
:105840008A1817620278571C920089184B4AFFB2D7
:1058500007700A6262461A60893A49492E60FF3A27
:1058600002202660FFF739FA4648FFF749FE46480E
:10587000FFF746FE454C202123004D331B7804A83A
:10588000012B00D0D5E012F0A2FC4148FDF753F9FE
:10589000002340480593FDF74EF9FDF7BCF80128B9
:1058A000F3D0022800D09CE03B48FDF744F904A85F
:1058B00011F07CFF00234D342370DBE701CA01C3E4
:1058C00036E602C33AE6C0462405004064000020E4
:1058D00054050040942B02000000002064000020CA
:1058E000E4040020E00F00F0E80F00F0C097010092
:1058F00004050040DFFF07C0186C00409F1B00003C
:1059000000EC064014EC06400800004000000020B7
:10591000E400002075200000640000200405000061
:1059200000300020E4020020004000200CAA01000A
:105930004098010034030020440300205403002059
:1059400068030020C0930100C09201009003002072
:1059500000E100E07C6100400060004000900040F9
:10596000FC0F00000C9C00404C050000701700006C
:10597000FF00FFFFE4010020F92F0000B1890100C2
:105980004D1C0000B4F50100BCF5010064020020CC
:10599000C4F501001B15020055F60100B04A1A605B
:1059A0001A68012AFCD103E60222134201D06E627A
:1059B0005EE60422134202D002236B6258E60822FC
:1059C000134201D00323F8E7DA0301D51023F4E7EB
:1059D0009A0301D51123F0E75B0300D448E61223B4
:1059E000EBE7032802D10023059356E7042804D0EF
:1059F000C1B204A812F01CFB4FE79A48FDF79BF8D0
:105A0000059B0193002B06D19748FDF794F804A855
:105A100011F0CCFE09E01122310004A8FFF7D2FCFE
:105A200080235B00184200D132E79048FFF794FCD6
:105A3000C2E512F0CCFB8E48FDF77DF88D48FDF7EE
:105A40007AF8F8228C4B52009B5A002B02D000218E
:105A5000894B99520023894904A80593FDF774F8EE
:105A6000FCF7D9FFFFF7F2F9041EF9DB012809D191
:105A70007D48FDF760F804A811F098FE804B4D3387
:105A80001C70F7E6022803D17748FDF754F8D2E7F7
:105A9000032801D17448D2E70428B5D005282BD1BA
:105AA0007848FDF748F800230593FCF7B4FF02ABF4
:105AB000C1B2D9710329EDD004290CD16A48FDF790
:105AC0003AF83100162204A8FFF77CFC80235B0023
:105AD0001842B6D0A9E704A812F0AAFA02ABDB7903
